:100000000C9462000C948A000C948A000C948A0070
:100010000C948A000C948A000C948A000C948A0038
:100020000C948A000C948A000C948A000C948A0028
:100030000C948A000C948A000C948A000C948A0018
:100040000C94B3030C948A000C948A000C948A00DC
:100050000C948A000C948A000C948A000C948A00F8
:100060000C948A000C948A000000000024002700F1
:100070002A0000000000250028002B0000000000DE
:1000800023002600290004040404040404040202DA
:100090000202020203030303030301020408102007
:1000A0004080010204081020010204081020000012
:1000B0000008000201000003040700000000000027
:1000C0000000770511241FBECFEFD8E0DEBFCDBF03
:1000D00021E0ACE4B1E001C01D92A337B207E1F723
:1000E00011E0A0E0B1E0E4EFFBE002C005900D926A
:1000F000AC34B107D9F710E0C2E6D0E004C02197D4
:10010000FE010E949D05C136D107C9F70E94FD037B
:100110000C94F8050C940000CF92DF92EF92FF92BE
:100120000F931F93CF93DF936C017A018B01C0E093
:10013000D0E0CE15DF0589F0D8016D918D01D60193
:10014000ED91FC910190F081E02DC6010995892B7C
:1001500011F47E0102C02196ECCFC701DF91CF914F
:100160001F910F91FF90EF90DF90CF900895833013
:1001700081F028F4813099F08230A1F00895873021
:10018000A9F08830B9F08430D1F4809180008F7D5F
:1001900003C0809180008F7780938000089584B59C
:1001A0008F7702C084B58F7D84BD08958091B000A3
:1001B0008F7703C08091B0008F7D8093B000089549
:1001C000CF93DF93E6EBF0E08491E2EAF0E0D491A4
:1001D000EEE8F0E0C491CC2391F081110E94B700C9
:1001E000EC2FF0E0EE0FFF1FE458FF4FA591B49104
:1001F000EC91ED2381E090E021F480E002C080E00A
:1002000090E0DF91CF9108951F93CF93DF93282F34
:1002100030E0F901E255FF4F8491F901E656FF4FB6
:10022000D491F901EA57FF4FC491CC23C9F0162F9E
:1002300081110E94B700EC2FF0E0EE0FFF1FEE5887
:10024000FF4FA591B4918FB7F894111105C09C91FF
:10025000ED2FE095E92302C0EC91ED2BEC938FBFDD
:10026000DF91CF911F910895CF93DF9390E0FC0130
:10027000E656FF4F2491FC01EA57FF4F84918823F3
:1002800061F190E0880F991FFC01E859FF4FC5917B
:10029000D491FC01EE58FF4FA591B491611109C0B2
:1002A0009FB7F8948881209582238883EC912E2330
:1002B0000BC0623061F49FB7F8943881822F80952B
:1002C00083238883EC912E2B2C939FBF06C08FB77E
:1002D000F894E8812E2B28838FBFDF91CF9108956A
:1002E0003FB7F89480914D0190914E01A0914F013C
:1002F000B091500126B5A89B05C02F3F19F001967B
:10030000A11DB11D3FBFBA2FA92F982F8827820F9B
:10031000911DA11DB11DBC01CD0142E0660F771FEB
:10032000881F991F4A95D1F708958F929F92AF9297
:10033000BF92CF92DF92EF92FF926B017C010E94FD
:1003400070014B015C01C114D104E104F104F1F02E
:100350000E947001DC01CB0188199909AA09BB0927
:10036000883E9340A105B10570F321E0C21AD1087F
:10037000E108F10888EE880E83E0981EA11CB11CEC
:10038000C114D104E104F10419F7DDCFFF90EF901F
:10039000DF90CF90BF90AF909F908F900895CF93B4
:1003A000DF93EC0160E08E810E94040161E08E81A8
:1003B0000E94040160E08E810E9404018BE891E0BC
:1003C0000197F1F7DF91CF910895CF92DF92EF92ED
:1003D000FF920F931F93CF93DF937C016C0187E013
:1003E000C80ED11CC0E0D0E0062F10E0B8010C2EE2
:1003F00002C0759567950A94E2F76170F6018191E4
:100400006F010E9404012196C430D10579F7C7011C
:10041000DF91CF911F910F91FF90EF90DF90CF90E0
:100420000C94CF01CF92DF92EF92FF920F931F9324
:10043000CF93DF93EC01F62E642F8C810E94040190
:100440008D818F3F19F060E00E9404018F850F2D90
:1004500010E084FF25C06E0187E0C80ED11CE12C9E
:10046000F12CB8010E2C02C0759567950A94E2F73D
:100470006170F60181916F010E940401FFEFEF1A94
:10048000FF0A88E0E816F10461F7CE01DF91CF9111
:100490001F910F91FF90EF90DF90CF900C94CF01C0
:1004A000B80184E0759567958A95E1F7CE010E94C1
:1004B000E5016F2DCE01DF91CF911F910F91FF903C
:1004C000EF90DF90CF900C94E50141E00E94120282
:1004D00081E090E0089540E00C941202EF92FF92C8
:1004E0000F931F93CF93DF93EC01623018F08F8549
:1004F00088608F876B8B1C8A80E48D8B80E18E8B6C
:1005000080E58F8B61E08C810E9434018D818F3F6B
:1005100019F061E00E94340161E08E810E94340193
:100520007E0187E0E80EF11C00E010E08F8584FD7D
:1005300003C084E090E002C088E090E0081719074B
:100540004CF461E0F70181917F010E9434010F5F5B
:100550001F4FECCF8BE39DE00197F1F760E08C81BA
:100560000E94040160E08E810E9404018D818F3F12
:1005700019F060E00E9404016F8564FD1DC063E016
:10058000CE010E94E5010BE416E4C8010197F1F7E2
:1005900063E0CE010E94E501C8010197F1F763E035
:1005A000CE010E94E50183E592E00197F1F762E058
:1005B000CE010E94E50116C06062CE010E946B026E
:1005C0008BE496E40197F1F76F856062CE010E949B
:1005D0006B0283E592E00197F1F76F856062CE01CF
:1005E0000E946B026F856062CE010E946B0284E004
:1005F000888B6CE0CE010E946B0261E0CE010E940C
:100600006B028BE39FE10197F1F782E0898B66E053
:10061000CE01DF91CF911F910F91FF90EF900C943D
:100620006B02843008F083E090916E01891710F01E
:100630008FEF890FE82FF0E0E55AFE4F648960687C
:100640008BE591E00C946B02009769F0FC0101903E
:100650000020E9F73197AF01481B590BBC018BE52E
:1006600091E00C948C0080E090E008958F929F922E
:10067000AF92BF92CF92DF92EF92FF920F931F93B0
:10068000CF93DF93CDB7DEB7A1970FB6F894DEBF57
:100690000FBECDBF6C01990FEE08FF08F7FE31C009
:1006A000E0915B01F0915C010190F081E02D6DE241
:1006B0008BE591E009958C0122273327A9012C199C
:1006C0003D094E095F0919A2CE0181967C019AE08D
:1006D000892E912CA12CB12CCA01B901A50194013C
:1006E0000E94C705605DF70162937F012115310506
:1006F0004105510589F7CF010E942403800F911F06
:100700001DC0A701960119A28E010F5D1F4F8AE03F
:10071000C82ED12CE12CF12CCA01B901A7019601F8
:100720000E94C705605DF80162938F0121153105B4
:100730004105510589F7CF010E942403A1960FB608
:10074000F894DEBF0FBECDBFDF91CF911F910F9107
:10075000FF90EF90DF90CF90BF90AF909F908F90E1
:1007600008950E94A3051F920F920FB60F921124B5
:100770002F933F938F939F93AF93BF93809151019A
:1007800090915201A0915301B091540130914C01CC
:1007900023E0230F2D3720F40196A11DB11D05C0C4
:1007A00026E8230F0296A11DB11D20934C018093D2
:1007B000510190935201A0935301B0935401809141
:1007C0004D0190914E01A0914F01B09150010196C1
:1007D000A11DB11D80934D0190934E01A0934F0137
:1007E000B0935001BF91AF919F918F913F912F9105
:1007F0000F900FBE0F901F901895789484B582606B
:1008000084BD84B5816084BD85B5826085BD85B5B4
:10081000816085BD80916E00816080936E00109232
:1008200081008091810082608093810080918100AD
:10083000816080938100809180008160809380003E
:100840008091B10084608093B1008091B00081609C
:100850008093B00080917A00846080937A008091C8
:100860007A00826080937A0080917A008160809320
:100870007A0080917A00806880937A001092C1009B
:1008800060E088E00E94340160E08EE00E94340164
:1008900061E08BE00E94340162E08BE591E00E9410
:1008A0006E0280E00E9411038CE091E00E9424031C
:1008B00081E00E9411038DE191E00E94240360ED2C
:1008C00077E080E090E00E94950161E08BE591E0A7
:1008D0000E946B028BE39FE10197F1F744244A9455
:1008E00083E0582E612C712C99EB292E90E0392E43
:1008F00020E0822E20E0922E8FB7F894C090510114
:10090000D0905201E0905301F09054018FBF10E05D
:10091000C0E0D0E00E94E000019709F411E00E94DD
:10092000E000892B11F41111DFC02FB7F8948091EA
:10093000510190915201A0915301B09154012FBFE8
:100940008C199D09AE09BF09893E9340A105B105E7
:1009500008F38EE18C9F80018D9F100D1124E0E43F
:10096000E0937C0080917A00806480937A0080918B
:100970007A0086FDFCCFC091780080917900D0E0AC
:10098000D82BD0935A01C09359012DEC30E0DE01F1
:100990000E949605A30192010E94A80569017A01AF
:1009A000F2E3CF0ED11CE11CF11C5601D09258018C
:1009B000C092570124E630E0DE010E949605A301B3
:1009C00092010E94A80530935601209355011216FA
:1009D0001306140615060CF057C061E08BE00E9468
:1009E0003401C114D104E104F10411F460E007C042
:1009F0002FEFC216D104E104F10419F461E08BE099
:100A000045C0F10184918330F9F048F48130B9F0A8
:100A10008230A1F584B5806284BDC8BC39C08730FE
:100A2000E9F0883019F1843049F5809180008062C6
:100A300080938000D0928B00C0928A0029C084B538
:100A4000806884BDC7BC24C080918000806880938A
:100A50008000D0928900C09288001AC08091B000B6
:100A600080688093B000C092B30012C08091B00043
:100A700080628093B000C092B4000AC0F0E8AF1664
:100A8000B1040CF0BBCFB2CF60E08C2D0E9404010A
:100A900080E00E9411038EE291E00E942403809185
:100AA0005501909156010E9436038BE391E00E941C
:100AB000240381E00E9411038FE391E00E9424034C
:100AC000C8010E94360388E491E00E9424036AE092
:100AD00070E080E090E00E9495018114910409F497
:100AE0000BCF0E94000008CF219610E01ECFEBE54F
:100AF000F1E01382128288E091E09183808382E0AA
:100B000084838FEF858383E0868384E0878385E019
:100B1000808786E0818787E0828713861486158622
:100B20001686178661E0CF010C946E020E94E905DB
:100B3000B7FF0895821B930B0895EE0FFF1F0590DA
:100B4000F491E02D099481E090E0F8940C94F8057C
:100B5000052E97FB1EF400940E94BF0557FD07D099
:100B60000E94C70507FC03D04EF40C94BF055095B6
:100B70004095309521953F4F4F4F5F4F0895909589
:100B80008095709561957F4F8F4F9F4F0895A1E29B
:100B90001A2EAA1BBB1BFD010DC0AA1FBB1FEE1FF7
:100BA000FF1FA217B307E407F50720F0A21BB30B42
:100BB000E40BF50B661F771F881F991F1A9469F7BE
:100BC00060957095809590959B01AC01BD01CF011A
:100BD0000895A29FB001B39FC001A39F700D811D16
:100BE0001124911DB29F700D811D1124911D089536
:040BF000F894FFCFA7
:100BF400010000000000000065028C002057454CF5
:100C0400434F4D4520546F20204D792000596F7576
:100C14005475626520204368616E6E656C0044758E
:100C24007479204379636C653A20002520200020E4
:0C0C3400202052504D3A200020202000CB
:00000001FF
